{
  "contractName": "demo",
  "abi": [
    {
      "inputs": [
        {
          "internalType": "string",
          "name": "p_name",
          "type": "string"
        }
      ],
      "name": "addProduct",
      "outputs": [],
      "stateMutability": "nonpayable",
      "type": "function"
    }
  ],
  "bytecode": "0x60806040526000805534801561001457600080fd5b50610430806100246000396000f3fe608060405234801561001057600080fd5b506004361061002b5760003560e01c8063dfe00c5114610030575b600080fd5b61004a600480360381019061004591906102ce565b61004c565b005b60008081548092919061005e90610350565b91905055506001604051806040016040528060005481526020018381525090806001815401808255809150506001900390600052602060002090600202016000909190919091506000820151816000015560208201518160010190805190602001906100cb9291906100d1565b50505050565b8280546100dd906103c8565b90600052602060002090601f0160209004810192826100ff5760008555610146565b82601f1061011857805160ff1916838001178555610146565b82800160010185558215610146579182015b8281111561014557825182559160200191906001019061012a565b5b5090506101539190610157565b5090565b5b80821115610170576000816000905550600101610158565b5090565b6000604051905090565b600080fd5b600080fd5b600080fd5b600080fd5b6000601f19601f8301169050919050565b7f4e487b7100000000000000000000000000000000000000000000000000000000600052604160045260246000fd5b6101db82610192565b810181811067ffffffffffffffff821117156101fa576101f96101a3565b5b80604052505050565b600061020d610174565b905061021982826101d2565b919050565b600067ffffffffffffffff821115610239576102386101a3565b5b61024282610192565b9050602081019050919050565b82818337600083830152505050565b600061027161026c8461021e565b610203565b90508281526020810184848401111561028d5761028c61018d565b5b61029884828561024f565b509392505050565b600082601f8301126102b5576102b4610188565b5b81356102c584826020860161025e565b91505092915050565b6000602082840312156102e4576102e361017e565b5b600082013567ffffffffffffffff81111561030257610301610183565b5b61030e848285016102a0565b91505092915050565b7f4e487b7100000000000000000000000000000000000000000000000000000000600052601160045260246000fd5b6000819050919050565b600061035b82610346565b91507fffffffffffffffffffffffffffffffffffffffffffffffffffffffffffffffff82141561038e5761038d610317565b5b600182019050919050565b7f4e487b7100000000000000000000000000000000000000000000000000000000600052602260045260246000fd5b600060028204905060018216806103e057607f821691505b602082108114156103f4576103f3610399565b5b5091905056fea264697066735822122071c38e3ba572a4d33d2c903393881131a658687fb9dc003ebc4aa3522b8a737f64736f6c634300080c0033",
  "immutableReferences": {},
  "source": "// SPDX-License-Identifier: GPL-3.0\n\npragma solidity >=0.7.0 <0.9.0;\n\n/** \n * @title Ballot\n * @dev Implements voting process along with vote delegation\n */\ncontract demo{\n\n    uint  product_count = 0;\n\n    struct Product{\n        uint p_id;\n        string name;\n    }\n\n    Product[]  products;\n\n    function addProduct(string memory p_name) public {\n        \n        product_count++;\n\n        products.push(Product({\n            p_id: product_count,\n            name: p_name \n        }));\n        \n    }\n\n    \n}\n\n",
  "sourcePath": "/home/tonmoy/Block_Chain/demo/contracts/demo.sol",
  "compiler": {
    "name": "solc",
    "version": "0.8.12+commit.f00d7308.Emscripten.clang"
  },
  "schemaVersion": "3.4.6",
  "updatedAt": "2022-03-25T14:40:34.304Z",
  "networkType": "ethereum",
  "devdoc": {
    "details": "Implements voting process along with vote delegation",
    "kind": "dev",
    "methods": {},
    "title": "Ballot",
    "version": 1
  },
  "userdoc": {
    "kind": "user",
    "methods": {},
    "version": 1
  }
}