{
  "contractName": "demo",
  "abi": [
    {
      "inputs": [],
      "name": "product_count",
      "outputs": [
        {
          "internalType": "uint256",
          "name": "",
          "type": "uint256"
        }
      ],
      "stateMutability": "view",
      "type": "function",
      "constant": true
    },
    {
      "inputs": [
        {
          "internalType": "uint256",
          "name": "",
          "type": "uint256"
        }
      ],
      "name": "products",
      "outputs": [
        {
          "internalType": "uint256",
          "name": "p_id",
          "type": "uint256"
        },
        {
          "internalType": "string",
          "name": "product_name",
          "type": "string"
        },
        {
          "internalType": "uint256",
          "name": "p_price",
          "type": "uint256"
        },
        {
          "internalType": "string",
          "name": "owener",
          "type": "string"
        },
        {
          "internalType": "string",
          "name": "mnfctr_date",
          "type": "string"
        },
        {
          "internalType": "string",
          "name": "expr_date",
          "type": "string"
        },
        {
          "internalType": "string",
          "name": "mrp",
          "type": "string"
        }
      ],
      "stateMutability": "view",
      "type": "function",
      "constant": true
    },
    {
      "inputs": [
        {
          "internalType": "string",
          "name": "_user",
          "type": "string"
        }
      ],
      "name": "set_cuurent_user",
      "outputs": [],
      "stateMutability": "nonpayable",
      "type": "function"
    },
    {
      "inputs": [
        {
          "internalType": "string",
          "name": "p_name",
          "type": "string"
        },
        {
          "internalType": "uint256",
          "name": "_p_price",
          "type": "uint256"
        }
      ],
      "name": "addProduct",
      "outputs": [],
      "stateMutability": "nonpayable",
      "type": "function"
    },
    {
      "inputs": [
        {
          "internalType": "uint256",
          "name": "ind",
          "type": "uint256"
        },
        {
          "internalType": "string",
          "name": "f_date",
          "type": "string"
        },
        {
          "internalType": "string",
          "name": "s_date",
          "type": "string"
        },
        {
          "internalType": "string",
          "name": "_mrp",
          "type": "string"
        }
      ],
      "name": "shiftProduct_toRetailer",
      "outputs": [],
      "stateMutability": "nonpayable",
      "type": "function"
    }
  ],
  "bytecode": "0x60806040526000805534801561001457600080fd5b50610d07806100246000396000f3fe608060405234801561001057600080fd5b50600436106100575760003560e01c806305877f9e1461005c5780632cbdeb48146100785780637acc0b2014610094578063963518cc146100ca578063b15247d9146100e8575b600080fd5b610076600480360381019061007191906108c2565b610104565b005b610092600480360381019061008d9190610941565b61011e565b005b6100ae60048036038101906100a991906109fc565b610241565b6040516100c19796959493929190610ac0565b60405180910390f35b6100d261053b565b6040516100df9190610b52565b60405180910390f35b61010260048036038101906100fd9190610b6d565b610541565b005b806001908051906020019061011a9291906106c5565b5050565b6040518060400160405280600881526020017f72657461696c65720000000000000000000000000000000000000000000000008152506002858154811061016857610167610bc9565b5b9060005260206000209060070201600301908051906020019061018c9291906106c5565b5082600285815481106101a2576101a1610bc9565b5b906000526020600020906007020160040190805190602001906101c69291906106c5565b5081600285815481106101dc576101db610bc9565b5b906000526020600020906007020160050190805190602001906102009291906106c5565b50806002858154811061021657610215610bc9565b5b9060005260206000209060070201600601908051906020019061023a9291906106c5565b5050505050565b6002818154811061025157600080fd5b906000526020600020906007020160009150905080600001549080600101805461027a90610c27565b80601f01602080910402602001604051908101604052809291908181526020018280546102a690610c27565b80156102f35780601f106102c8576101008083540402835291602001916102f3565b820191906000526020600020905b8154815290600101906020018083116102d657829003601f168201915b50505050509080600201549080600301805461030e90610c27565b80601f016020809104026020016040519081016040528092919081815260200182805461033a90610c27565b80156103875780601f1061035c57610100808354040283529160200191610387565b820191906000526020600020905b81548152906001019060200180831161036a57829003601f168201915b50505050509080600401805461039c90610c27565b80601f01602080910402602001604051908101604052809291908181526020018280546103c890610c27565b80156104155780601f106103ea57610100808354040283529160200191610415565b820191906000526020600020905b8154815290600101906020018083116103f857829003601f168201915b50505050509080600501805461042a90610c27565b80601f016020809104026020016040519081016040528092919081815260200182805461045690610c27565b80156104a35780601f10610478576101008083540402835291602001916104a3565b820191906000526020600020905b81548152906001019060200180831161048657829003601f168201915b5050505050908060060180546104b890610c27565b80601f01602080910402602001604051908101604052809291908181526020018280546104e490610c27565b80156105315780601f1061050657610100808354040283529160200191610531565b820191906000526020600020905b81548152906001019060200180831161051457829003601f168201915b5050505050905087565b60005481565b60008081548092919061055390610c88565b919050555060026040518060e0016040528060005481526020018481526020018381526020016040518060400160405280600681526020017f6661726d6572000000000000000000000000000000000000000000000000000081525081526020016040518060200160405280600081525081526020016040518060200160405280600081525081526020016040518060200160405280600081525081525090806001815401808255809150506001900390600052602060002090600702016000909190919091506000820151816000015560208201518160010190805190602001906106409291906106c5565b506040820151816002015560608201518160030190805190602001906106679291906106c5565b5060808201518160040190805190602001906106849291906106c5565b5060a08201518160050190805190602001906106a19291906106c5565b5060c08201518160060190805190602001906106be9291906106c5565b5050505050565b8280546106d190610c27565b90600052602060002090601f0160209004810192826106f3576000855561073a565b82601f1061070c57805160ff191683800117855561073a565b8280016001018555821561073a579182015b8281111561073957825182559160200191906001019061071e565b5b509050610747919061074b565b5090565b5b8082111561076457600081600090555060010161074c565b5090565b6000604051905090565b600080fd5b600080fd5b600080fd5b600080fd5b6000601f19601f8301169050919050565b7f4e487b7100000000000000000000000000000000000000000000000000000000600052604160045260246000fd5b6107cf82610786565b810181811067ffffffffffffffff821117156107ee576107ed610797565b5b80604052505050565b6000610801610768565b905061080d82826107c6565b919050565b600067ffffffffffffffff82111561082d5761082c610797565b5b61083682610786565b9050602081019050919050565b82818337600083830152505050565b600061086561086084610812565b6107f7565b90508281526020810184848401111561088157610880610781565b5b61088c848285610843565b509392505050565b600082601f8301126108a9576108a861077c565b5b81356108b9848260208601610852565b91505092915050565b6000602082840312156108d8576108d7610772565b5b600082013567ffffffffffffffff8111156108f6576108f5610777565b5b61090284828501610894565b91505092915050565b6000819050919050565b61091e8161090b565b811461092957600080fd5b50565b60008135905061093b81610915565b92915050565b6000806000806080858703121561095b5761095a610772565b5b60006109698782880161092c565b945050602085013567ffffffffffffffff81111561098a57610989610777565b5b61099687828801610894565b935050604085013567ffffffffffffffff8111156109b7576109b6610777565b5b6109c387828801610894565b925050606085013567ffffffffffffffff8111156109e4576109e3610777565b5b6109f087828801610894565b91505092959194509250565b600060208284031215610a1257610a11610772565b5b6000610a208482850161092c565b91505092915050565b610a328161090b565b82525050565b600081519050919050565b600082825260208201905092915050565b60005b83811015610a72578082015181840152602081019050610a57565b83811115610a81576000848401525b50505050565b6000610a9282610a38565b610a9c8185610a43565b9350610aac818560208601610a54565b610ab581610786565b840191505092915050565b600060e082019050610ad5600083018a610a29565b8181036020830152610ae78189610a87565b9050610af66040830188610a29565b8181036060830152610b088187610a87565b90508181036080830152610b1c8186610a87565b905081810360a0830152610b308185610a87565b905081810360c0830152610b448184610a87565b905098975050505050505050565b6000602082019050610b676000830184610a29565b92915050565b60008060408385031215610b8457610b83610772565b5b600083013567ffffffffffffffff811115610ba257610ba1610777565b5b610bae85828601610894565b9250506020610bbf8582860161092c565b9150509250929050565b7f4e487b7100000000000000000000000000000000000000000000000000000000600052603260045260246000fd5b7f4e487b7100000000000000000000000000000000000000000000000000000000600052602260045260246000fd5b60006002820490506001821680610c3f57607f821691505b60208210811415610c5357610c52610bf8565b5b50919050565b7f4e487b7100000000000000000000000000000000000000000000000000000000600052601160045260246000fd5b6000610c938261090b565b91507fffffffffffffffffffffffffffffffffffffffffffffffffffffffffffffffff821415610cc657610cc5610c59565b5b60018201905091905056fea2646970667358221220a3fdeae1d8e7e332f5a5ab566b41ce1f82df9ac8c5b5798e24d90c2ccf3a06bc64736f6c634300080c0033",
  "immutableReferences": {},
  "source": "// SPDX-License-Identifier: GPL-3.0\n\npragma solidity >=0.7.0 <0.9.0;\n\n/** \n * @title Ballot\n * @dev Implements voting process along with vote delegation\n */\ncontract demo{\n\n    uint public product_count = 0;\n\n    struct Product{\n        uint p_id;\n        string product_name;\n        uint p_price;\n        string owener;\n        string mnfctr_date;\n        string expr_date; \n        string mrp;\n    }\n\n    // who is the current user of the contract\n    string user; \n    function set_cuurent_user(string memory _user) public{\n        user = _user;\n    }\n\n\n    Product[] public products;\n\n    function addProduct(string memory p_name , uint _p_price) public {\n        \n        product_count++;\n\n        products.push(Product({\n            p_id: product_count,\n            product_name: p_name, \n            p_price: _p_price,\n            owener: \"farmer\",\n            mnfctr_date: \"\",\n            expr_date: \"\",\n            mrp: \"\"\n        }));\n        \n    }\n\n    function shiftProduct_toRetailer(uint ind , string memory f_date , string memory s_date , string memory _mrp) public {\n        products[ind].owener = \"retailer\";\n        products[ind].mnfctr_date = f_date;\n        products[ind].expr_date = s_date; \n        products[ind].mrp = _mrp;\n    }\n    \n}\n",
  "sourcePath": "/home/tonmoy/Block_Chain/demo/contracts/demo.sol",
  "compiler": {
    "name": "solc",
    "version": "0.8.12+commit.f00d7308.Emscripten.clang"
  },
  "schemaVersion": "3.4.6",
  "updatedAt": "2022-04-11T08:56:00.304Z",
  "networkType": "ethereum",
  "devdoc": {
    "details": "Implements voting process along with vote delegation",
    "kind": "dev",
    "methods": {},
    "title": "Ballot",
    "version": 1
  },
  "userdoc": {
    "kind": "user",
    "methods": {},
    "version": 1
  }
}