{
  "contractName": "demo",
  "abi": [
    {
      "anonymous": false,
      "inputs": [
        {
          "indexed": false,
          "internalType": "uint256",
          "name": "p_id",
          "type": "uint256"
        },
        {
          "indexed": false,
          "internalType": "string",
          "name": "name",
          "type": "string"
        }
      ],
      "name": "ProductAdded",
      "type": "event"
    },
    {
      "inputs": [],
      "name": "product_count",
      "outputs": [
        {
          "internalType": "uint256",
          "name": "",
          "type": "uint256"
        }
      ],
      "stateMutability": "view",
      "type": "function",
      "constant": true
    },
    {
      "inputs": [
        {
          "internalType": "uint256",
          "name": "",
          "type": "uint256"
        }
      ],
      "name": "products",
      "outputs": [
        {
          "internalType": "uint256",
          "name": "p_id",
          "type": "uint256"
        },
        {
          "internalType": "string",
          "name": "name",
          "type": "string"
        }
      ],
      "stateMutability": "view",
      "type": "function",
      "constant": true
    },
    {
      "inputs": [
        {
          "internalType": "string",
          "name": "p_name",
          "type": "string"
        }
      ],
      "name": "addProduct",
      "outputs": [],
      "stateMutability": "nonpayable",
      "type": "function"
    },
    {
      "inputs": [],
      "name": "returnProducts",
      "outputs": [
        {
          "components": [
            {
              "internalType": "uint256",
              "name": "p_id",
              "type": "uint256"
            },
            {
              "internalType": "string",
              "name": "name",
              "type": "string"
            }
          ],
          "internalType": "struct demo.Product[]",
          "name": "",
          "type": "tuple[]"
        }
      ],
      "stateMutability": "view",
      "type": "function",
      "constant": true
    }
  ],
  "bytecode": "0x60806040526000805534801561001457600080fd5b5061096b806100246000396000f3fe608060405234801561001057600080fd5b506004361061004c5760003560e01c80637acc0b2014610051578063963518cc14610082578063dfe00c51146100a0578063f4fd4cbb146100bc575b600080fd5b61006b60048036038101906100669190610444565b6100da565b604051610079929190610519565b60405180910390f35b61008a610196565b6040516100979190610549565b60405180910390f35b6100ba60048036038101906100b59190610699565b61019c565b005b6100c461025c565b6040516100d1919061083a565b60405180910390f35b600181815481106100ea57600080fd5b90600052602060002090600202016000915090508060000154908060010180546101139061088b565b80601f016020809104026020016040519081016040528092919081815260200182805461013f9061088b565b801561018c5780601f106101615761010080835404028352916020019161018c565b820191906000526020600020905b81548152906001019060200180831161016f57829003601f168201915b5050505050905082565b60005481565b6000808154809291906101ae906108ec565b919050555060016040518060400160405280600054815260200183815250908060018154018082558091505060019003906000526020600020906002020160009091909190915060008201518160000155602082015181600101908051906020019061021b929190610357565b5050507f259101de1f87b04b9ee0332ce5e3cc508014004bf283424aead6cd8692f5cf9860005482604051610251929190610519565b60405180910390a150565b60606001805480602002602001604051908101604052809291908181526020016000905b8282101561034e5783829060005260206000209060020201604051806040016040529081600082015481526020016001820180546102bd9061088b565b80601f01602080910402602001604051908101604052809291908181526020018280546102e99061088b565b80156103365780601f1061030b57610100808354040283529160200191610336565b820191906000526020600020905b81548152906001019060200180831161031957829003601f168201915b50505050508152505081526020019060010190610280565b50505050905090565b8280546103639061088b565b90600052602060002090601f01602090048101928261038557600085556103cc565b82601f1061039e57805160ff19168380011785556103cc565b828001600101855582156103cc579182015b828111156103cb5782518255916020019190600101906103b0565b5b5090506103d991906103dd565b5090565b5b808211156103f65760008160009055506001016103de565b5090565b6000604051905090565b600080fd5b600080fd5b6000819050919050565b6104218161040e565b811461042c57600080fd5b50565b60008135905061043e81610418565b92915050565b60006020828403121561045a57610459610404565b5b60006104688482850161042f565b91505092915050565b61047a8161040e565b82525050565b600081519050919050565b600082825260208201905092915050565b60005b838110156104ba57808201518184015260208101905061049f565b838111156104c9576000848401525b50505050565b6000601f19601f8301169050919050565b60006104eb82610480565b6104f5818561048b565b935061050581856020860161049c565b61050e816104cf565b840191505092915050565b600060408201905061052e6000830185610471565b818103602083015261054081846104e0565b90509392505050565b600060208201905061055e6000830184610471565b92915050565b600080fd5b600080fd5b7f4e487b7100000000000000000000000000000000000000000000000000000000600052604160045260246000fd5b6105a6826104cf565b810181811067ffffffffffffffff821117156105c5576105c461056e565b5b80604052505050565b60006105d86103fa565b90506105e4828261059d565b919050565b600067ffffffffffffffff8211156106045761060361056e565b5b61060d826104cf565b9050602081019050919050565b82818337600083830152505050565b600061063c610637846105e9565b6105ce565b90508281526020810184848401111561065857610657610569565b5b61066384828561061a565b509392505050565b600082601f8301126106805761067f610564565b5b8135610690848260208601610629565b91505092915050565b6000602082840312156106af576106ae610404565b5b600082013567ffffffffffffffff8111156106cd576106cc610409565b5b6106d98482850161066b565b91505092915050565b600081519050919050565b600082825260208201905092915050565b6000819050602082019050919050565b6107178161040e565b82525050565b600082825260208201905092915050565b600061073982610480565b610743818561071d565b935061075381856020860161049c565b61075c816104cf565b840191505092915050565b600060408301600083015161077f600086018261070e565b5060208301518482036020860152610797828261072e565b9150508091505092915050565b60006107b08383610767565b905092915050565b6000602082019050919050565b60006107d0826106e2565b6107da81856106ed565b9350836020820285016107ec856106fe565b8060005b85811015610828578484038952815161080985826107a4565b9450610814836107b8565b925060208a019950506001810190506107f0565b50829750879550505050505092915050565b6000602082019050818103600083015261085481846107c5565b905092915050565b7f4e487b7100000000000000000000000000000000000000000000000000000000600052602260045260246000fd5b600060028204905060018216806108a357607f821691505b602082108114156108b7576108b661085c565b5b50919050565b7f4e487b7100000000000000000000000000000000000000000000000000000000600052601160045260246000fd5b60006108f78261040e565b91507fffffffffffffffffffffffffffffffffffffffffffffffffffffffffffffffff82141561092a576109296108bd565b5b60018201905091905056fea26469706673582212202b1f9dc281c31b52975ca72de4514198b94db8d5a3708f0a36a896139e5ef7a964736f6c634300080c0033",
  "immutableReferences": {},
  "source": "// SPDX-License-Identifier: GPL-3.0\n\npragma solidity >=0.7.0 <0.9.0;\n\n/** \n * @title Ballot\n * @dev Implements voting process along with vote delegation\n */\ncontract demo{\n\n    uint public product_count = 0;\n\n    struct Product{\n        uint p_id;\n        string name;\n    }\n\n    event ProductAdded(uint p_id , string name);\n\n    Product[] public products;\n\n    function addProduct(string memory p_name) public {\n        \n        product_count++;\n\n        products.push(Product({\n            p_id: product_count,\n            name: p_name \n        }));\n        emit ProductAdded(product_count , p_name);\n        \n    }\n\n \n    function returnProducts() public view returns(Product[] memory) {\n        return products;\n    }\n    \n}\n\n",
  "sourcePath": "/home/tonmoy/Block_Chain/demo/contracts/demo.sol",
  "compiler": {
    "name": "solc",
    "version": "0.8.12+commit.f00d7308.Emscripten.clang"
  },
  "schemaVersion": "3.4.6",
  "updatedAt": "2022-03-28T14:29:41.313Z",
  "networkType": "ethereum",
  "devdoc": {
    "details": "Implements voting process along with vote delegation",
    "kind": "dev",
    "methods": {},
    "title": "Ballot",
    "version": 1
  },
  "userdoc": {
    "kind": "user",
    "methods": {},
    "version": 1
  }
}